:020000040000FA
:060000000CEF0EF01200EF
:0A00060001006A1C00006E000000FB
:0400100002000000EA
:0C001400D9CFE6FFE1CFD9FFFD0EDBCF16
:100020001BF0FE0EDBCF1CF01C3404E21B5000085A
:10003000000E1C5402E3000E01D0010E1A6EFD0EDC
:10004000DBCF18F0FE0EDBCF19F00001800E191483
:1000500002E1000E01D0010EFF0DF3501A24166EBE
:10006000176A16BE1768FD0EDBCF08F0FE0EDBCF59
:1000700009F016C00DF017C00EF0B7EC03F006C083
:10008000F3FF07C0F4FFE552E7CFD9FF1200D9CF45
:10009000E6FFE1CFD9FF040EE126FD0EDBCFE6FF40
:1000A000FE0EDBCFE6FFB6DFE552E552F3CFDEFF13
:1000B000F4CFDDFFFD0EDBCF16F0FE0EDBCF17F029
:1000C0000001800E171402E1000E01D0010EFF0D99
:1000D000F3CF14F0156A14BE1568020E14C0DBFFCE
:1000E000030E15C0DBFFDECF14F0DDCF15F01534A5
:1000F00004E214500008000E155404E300016E6B76
:100100006F6B45D0DECF14F0DDCF15F0D8901550D1
:1001100004E6640E145C000E15580AE30868030E2A
:10012000096E020EDBCF0DF0030EDBCF0EF029D0EF
:10013000DECF14F0DDCF15F0640E0D6E0E6A14C024
:1001400008F015C009F091EC03F008C014F009C0E4
:1001500015F0FF0E1502F3CF15F0030E1402F35045
:100160001526FF0E1402F3CF14F0F4501526020EDC
:10017000DBCF08F0030EDBCF09F0F3CF0DF015C095
:100180000EF0B7EC03F006C06EF007C06FF06EC063
:10019000E6FF6FC0E6FFCBEC0AF0E552E5526EC019
:1001A000E6FF6FC0E6FF21EC0BF0E552E552040ECE
:1001B000E15C02E2E16AE552E16EE552E7CFD9FF88
:1001C0001200D9CFE6FFE1CFD9FF080EE126640E79
:1001D000146E156AFD0EDBCF08F0FE0EDBCF09F0C2
:1001E00014C00DF015C00EF091EC03F07AEC02F0A3
:1001F00007C0DEFF08C0DEFF09C0DEFF0AC0DDFF6A
:10020000DD52DD52040E6EC0DBFF050E6FC0DBFF5A
:10021000060E6EC0DBFF070E6FC0DBFFFD0EDBCFEF
:1002200014F0FE0EDBCF15F00001800E151401E076
:1002300085D06EC008F06FC009F07AEC02F007C0FC
:1002400014F008C015F009C016F00AC017F01C6AB7
:100250001D6A800E1E6E3F0E1F6ED9CFE9FFDACFEA
:10026000EAFFEECF20F0EECF21F0EECF22F0EFCF7D
:1002700023F020C00CF021C00DF022C00EF023C0EE
:100280000FF01CC007F01DC008F01EC009F00A6E78
:100290008EEC02F007C018F008C019F009C01AF07F
:1002A0000AC01BF007C00CF008C00DF009C00EF02A
:1002B0000AC00FF014C007F015C008F016C009F00E
:1002C00017C00AF024EC03F0E4EC03F0040E08C0BD
:1002D000DBFF050E09C0DBFF6EC008F06FC009F040
:1002E0007AEC02F007C014F008C015F009C016F04F
:1002F0000AC017F01C6A1D6A800E1E6E3F0E1F6E2C
:10030000D9CFE9FFDACFEAFFEECF20F0EECF21F030
:10031000EECF22F0EFCF23F020C00CF021C00DF083
:1003200022C00EF023C00FF01CC007F01DC008F063
:100330001EC009F00A6E8DEC02F084D06EC008F089
:100340006FC009F07AEC02F007C014F008C015F095
:1003500009C016F00AC017F01C6A1D6A800E1E6ED6
:100360003F0E1F6ED9CFE9FFDACFEAFFEECF20F0C4
:10037000EECF21F0EECF22F0EFCF23F020C00CF033
:1003800021C00DF022C00EF023C00FF01CC007F0FA
:100390001DC008F01EC009F00A6E8DEC02F007C007
:1003A00018F008C019F009C01AF00AC01BF007C005
:1003B0000CF008C00DF009C00EF00AC00FF014C018
:1003C00007F015C008F016C009F017C00AF024ECB9
:1003D00003F0E4EC03F0040E08C0DBFF050E09C0D7
:1003E000DBFF6EC008F06FC009F07AEC02F007C0C6
:1003F00014F008C015F009C016F00AC017F01C6A06
:100400001D6A800E1E6E3F0E1F6ED9CFE9FFDACF38
:10041000EAFFEECF20F0EECF21F0EECF22F0EFCFCB
:1004200023F020C00CF021C00DF022C00EF023C03C
:100430000FF01CC007F01DC008F01EC009F00A6EC6
:100440008EEC02F007C018F008C019F009C01AF0CD
:100450000AC01BF007C00CF008C00DF009C00EF078
:100460000AC00FF014C007F015C008F016C009F05C
:1004700017C00AF024EC03F0E4EC03F0060E08C009
:10048000DBFF070E09C0DBFF040EDBCFE6FF050E26
:10049000DBCFE6FFCBEC0AF0E552E552060EDBCFF0
:1004A000E6FF070EDBCFE6FF21EC0BF0E552E5524D
:1004B000080EE15C02E2E16AE552E16EE552E7CF47
:1004C000D9FF1200000EE66EE66AE1DDE552E55264
:1004D0001200010EE66EE66AD7EC06F0E552E55230
:1004E000010EE66EE66ED7EC06F0E552E55212001C
:1004F000019E08D0019E09AE05D0086C091EE86A6D
:100500000922018E09C003F008C002F0136A126AC2
:100510008E0E046E056A2FEF04F00F7E016A6BECFD
:1005200004F083EC04F001B613EF04F001A20AD04A
:1005300001AA03D001BE13EF04F001A41FEF04F0E1
:100540001CEF04F001AA05D001AC1FEF04F01CEF72
:1005500004F001A00AD001A808D001BE04D001A473
:1005600002D028EF04F02CEF04F0126A056A0F5055
:100570000A5C116E10E307C013F008C002F009C056
:1005800003F00AC010F00CC007F00DC008F00EC058
:1005900009F0013A09D00CC013F00DC002F00EC0F2
:1005A00003F00FC010F0116C019E01BC018E10C051
:1005B00004F001B05BEF04F01A0E11605BEF04F081
:1005C000046A0A6A01A408D0076C081E091E0A1EE4
:1005D000E86A082209220A2201AC08D0136C021E24
:1005E000031E041EE86A022203220422066A115234
:1005F00007E00A340932083207320632112EF9D7E1
:100600000750132608500222095003220A500422E0
:1006100006C012F0019E04AE0BD0126C131E021E17
:10062000031E041EE86A1322022203220422018E02
:1006300004A006D0D8800332023213321232102ABC
:1006400010C004F02FEF04F0016A6BEC04F083ECAF
:1006500004F001B613EF04F001A205D001B813EFC6
:1006600004F01AEF04F001AA05D001B013EF04F072
:100670001AEF04F001B002D001A802D026EF04F076
:10068000056A0F500A24046EE86A05227E0E045E95
:10069000E86A055A126A136A026A036A0E5009026E
:1006A000F4CF03F0F3CF02F00D500902F3501326FC
:1006B000F4500222000E03220E500802F3501326BB
:1006C000F4500222000E03220C500902F3501226AD
:1006D000F4501322000E022203220D500802F350A0
:1006E0001226F4501322000E022203220E5007029B
:1006F000F3501226F4501322000E022203220C5053
:100700000802F4501226000E1322022203220D507A
:100710000702F4501226000E1322022203222FEFAA
:1007200004F0006A0EAE9AEF03F00D6C0E1EE86A3C
:100730000E22001E09AEA2EF03F0086C091EE86A43
:100740000922001EE6EC0DF009BEB2EF03F000AE88
:10075000000C086C091EE86A0922046C051EE86A90
:100760000522000C00BEA9EF03F00188FF0C09C0B0
:1007700013F008C012F008500D02F4CF07F0F3CFC9
:1007800006F009500E02F4CF09F0F3CF08F00D0285
:10079000F3500726F4500822E86A092212500E028C
:1007A000F3500726F4500822E86A09220EAEDDEF66
:1007B00003F01250085E1350095A13AE000C0D508E
:1007C000085E0E50095A000C016A6BEC04F001B689
:1007D000EEEF03F001A20ED001B405D07F0E096E3A
:1007E000FF0E086E1FD0800E096E086A1BD0096AC2
:1007F000086A18D001B0FBD78F0E0A60EDD77E0EC5
:100800000A64F5D78E0E0A5C05E0D89009320832EA
:100810000A2AF8D701A406D0086C091EE86A092242
:1008200009AEE5D712007F0E0A6EFF0E096E086E44
:10083000076E12007F0E01BEFF0E0A6E02D07F0E01
:100840000A6E800E096E086A076AF3D701AE04D0FB
:10085000800E0A6E096AF7D70A6A096AF4D703504C
:10086000021013101210F8E005BEF0D703BE0CD032
:1008700004500510EBE0D8901236133602360336DA
:100880000406D8A00506F2D70550D4E10428D2E02A
:1008900012AE11D07F0E121402E113A00CD0132A55
:1008A000E86A0222032207E3D880033202321332BD
:1008B000042A0428BFE00450C9E013C007F002C0B6
:1008C00008F00334096E04300A6E09320A9E01BE34
:1008D0000A8E19EF04F009360A3602E30184017E1C
:1008E00006E101800A6A096A086A076A12000A2892
:1008F00003E0D88009321200D890093202E1018267
:100900001200018612000E360F3602E3018C017EC2
:1009100006E101880F6A0E6A0D6A0C6A12000F2840
:1009200003E0D8800E321200D8900E32EAE1018A3C
:020930001200B3
:0E09320094900A0EC16E050EE66EE66A06ECA3
:100940000AF0E552E552836A9568969096929694DD
:100950008490849284940F0EE66EE66A06EC0AF0A8
:10096000E552E552956A300EE66E30D8E552300E0B
:10097000E66E2CD8E552300EE66E28D8E552380ED9
:10098000E66E24D8E552060EE66E20D8E552180E23
:10099000E66E1CD8E5520C0EE66E18D8E552000142
:1009A0006D6B6DC06CF0D5EF04F0010EE66E0ED8E5
:1009B000E552020EE66EE66A06EC0AF0E552E552F2
:1009C000E66AE66A34D8E552E5521200D9CFE6FF6E
:1009D000DACFE6FFE1CFD9FFE2CFDAFFE652E65207
:1009E0008350DF6E8492849084848350DF6EFD0E8A
:1009F000DB50836E8494DF50836EDE522D0EDD6EED
:100A0000010EDB520CE0DB06010EDB5208E00000B9
:100A100000000000000000000000DB06F5D7E552F2
:100A2000E552E552E5CFDAFFE7CFD9FF1200D9CF83
:100A3000E6FFDACFE6FFE1CFD9FFE2CFDAFFE652F9
:100A4000E652FD0EDB50010805E2010EF36EFD0ECD
:100A5000F3CFDBFFFC0EDB500F0805E20F0EF36E49
:100A6000FC0EF3CFDBFFFD0EDBCF6CF0FC0EDBCF1B
:100A70006DF0FD0EDB0403E1C00EDF6E02D0800ED0
:100A8000DF6EFC0EDB98DB9ADB9CDB9EFC0EDB5002
:100A9000DF12DFCFE6FF9ADFE552DE522D0EDD6E6C
:100AA000010EDB520CE0DB06010EDB5208E0000019
:100AB00000000000000000000000DB06F5D7E55252
:100AC000E552E552E5CFDAFFE7CFD9FF1200D9CFE3
:100AD000E6FFDACFE6FFE1CFD9FFE2CFDAFFE65259
:100AE000E652E6528350DE6EDD6A00016D510F085A
:100AF0000BE200016C5102E058DF06D0E66A010EFD
:100B0000E66E95DFE552E5528492848084848350BA
:100B1000DE6EDD6AFD0EDB50836E8494DF50836EE3
:100B20002D0EF36E020EF3CFDBFF020EDB520CE054
:100B3000DB06020EDB5208E00000000000000000AF
:100B400000000000DB06F5D700016D2BE552E552F1
:100B5000E552E552E5CFDAFFE7CFD9FF1200D9CF52
:100B6000E6FFDACFE6FFE1CFD9FFE2CFDAFFE652C8
:100B7000FB0EDBCFE6FFFC0EDBCFE6FF58DFE552D6
:100B8000E552FD0EDBCFE6FFA2DFE552E552E5526E
:100B9000E5CFDAFFE7CFD9FF1200D9CFE6FFDACFF2
:100BA000E6FFE1CFD9FFE2CFDAFFFB0EDBCFF6FFA6
:100BB000FC0EDBCFF7FFFD0EDBCFF8FF0800F55092
:100BC00016E0D950FB0FE96EFF0EDA20EA6EEFCF88
:100BD000F6FFEE2AEFCFF7FF000EEE22EFCFF8FF81
:100BE000EE220800F550E66E72DFE552DED7E552E0
:100BF000E5CFDAFFE7CFD9FF1200D9CFE6FFDACF92
:100C0000E6FFE1CFD9FFE2CFDAFFFA0EDBCFE6FF56
:100C1000FB0EDBCFE6FF0BDFE552E552FC0EDBCF30
:100C200014F0FD0EDBCF15F0166A14C0E6FF15C0F8
:100C3000E6FF16C0E6FFB1DFE552E552E552E552A8
:100C4000E5CFDAFFE7CFD9FF1200D9CFE6FFDACF41
:100C5000E6FFE1CFD9FFE2CFDAFFFC0EDBCFE9FF01
:100C6000FD0EDBCFEAFFEF500EE0FC0EDBCFE9FF1D
:100C7000DB2AFD0EDBCFEAFF01E3DB2AEF50E66E55
:100C800026DFE552EAD7E552E5CFDAFFE7CFD9FF15
:100C90001200D9CFE6FFDACFE6FFE1CFD9FFE2CFEE
:100CA000DAFF070EE12402E3E168E652E16ED9CFF4
:100CB000E6FFDACFE6FFFC0EDBCFE6FFFD0EDBCF73
:100CC000E6FF31EC0CF0E552E552E552E552060E36
:100CD000DB6AD9CFE6FFDACFE6FFB7DFE552E552B0
:100CE000070EE15C02E2E16AE552E16EE552E5CF12
:100CF000DAFFE7CFD9FF1200D9CFE6FFDACFE6FF60
:100D0000E1CFD9FFE2CFDAFFFA0EDBCFE6FFFB0E31
:100D1000DBCFE6FF8CDEE552E552FC0EDBCFE6FFD3
:100D2000FD0EDBCFE6FFB5DFE552E552E552E5CF3C
:080D3000DAFFE7CFD9FF120042
:080D3800D9CFE6FFDACFE6FF98
:100D4000E1CFD9FFE2CFDAFFE652E652E65286EC77
:100D500009F0820EE66ECA0EE66EF3EC08F0E5527C
:100D6000E552E552E552E552E552E5CFDAFFE7CF2D
:100D7000D9FF1200D9CFE6FFDACFE6FFE1CFD9FFE6
:100D8000E2CFDAFFE65241D9DF6EFD0EDB0403E16C
:100D9000F70EDF1402D0080EDF10E66E1FD9E55201
:100DA000E552E552E5CFDAFFE7CFD9FF1200D9CF00
:100DB000E6FFDACFE6FFE1CFD9FFE2CFDAFFE65276
:100DC000E65223D9DF6EDE52320EDD6E010EDB52AB
:100DD0000CE0DB06010EDB5208E000000000000022
:100DE000000000000000DB06F5D7FD0EDB500FE130
:100DF000FC0EDB0406E1200EDF10E66EEFD8E552B4
:100E000005D0DF0EDF14E66EE9D8E55211D0FD0EF5
:100E1000DB040EE1FC0EDB0406E1400EDF10E66EA3
:100E2000DDD8E55205D0BF0EDF14E66ED7D8E55207
:100E3000E552E552E552E5CFDAFFE7CFD9FF1200E0
:100E4000D9CFE6FFDACFE6FFE1CFD9FFE2CFDAFF75
:100E5000E652E652E652E652DF6A010EDB6AFD0E0A
:100E6000DBCFE6FF73D8E5529DD8DF6EFC0EDB04C6
:100E70000CE0FD0EDB50070808E0FD0EDB50080813
:100E800004E0FD0EDB50090802E1DF5051D0FD0EF9
:100E9000DB0404E0FD0EDB50020803E1020EF36EFA
:100EA00011D0FD0EDB50040808E0FD0EDB500508F4
:100EB00004E0FD0EDB50060802E1040E01D0010E35
:100EC000F36E020EF3CFDBFFA0D8E76E030EE7CF81
:100ED000DBFF020EDBCFE6FF030EDB50E552E7102F
:100EE000E66E7CD8E552FD0EDBCFE6FF2FD8E5524B
:100EF00059D8E76E010EE7CFDBFF030EDBCFE6FF2D
:100F00006DD8E552FC0EDB50020803E1010EDB5008
:100F10000FD0010EDBCF14F0DF50D880145405E25F
:100F2000010EDB50D880DF5403D0010EDB50DF5CB4
:100F3000146E040EE15C02E2E16AE552E16E1450C7
:100F4000E552E5CFDAFFE7CFD9FF1200D9CFE6FFB0
:100F5000DACFE6FFE1CFD9FFE2CFDAFFE652FD0EAE
:100F6000DB50E8246109E66ECA0EE66EF3EC08F089
:100F7000E552E552C80EDF6E000EDB520CE0DB06D8
:100F8000000EDB5208E0000000000000000000003E
:100F90000000DB06F5D7E552E552E5CFDAFFE7CFF3
:100FA000D9FF1200D9CFE6FFDACFE6FFE1CFD9FFB4
:100FB000E2CFDAFFE652E652CA0EE66E2EEC09F0F8
:100FC000E552F3CFDEFFF4CFDDFFDF50E552E5520F
:100FD000E552E5CFDAFFE7CFD9FF1200D9CFE6FF20
:100FE000DACFE6FFE1CFD9FFE2CFDAFFFD0EDBCFAC
:100FF000E6FFB00EE66EF3EC08F0E552E552E5527E
:10100000E5CFDAFFE7CFD9FF1200D9CFE6FFDACF7D
:10101000E6FFE1CFD9FFE2CFDAFFE652E652B00EAB
:10102000E66E2EEC09F0E552F3CFDEFFF4CFDDFFE4
:10103000DF50E552E552E552E5CFDAFFE7CFD9FFC1
:0210400012009C
:0E104200D9CFE6FFDACFE6FFE1CFD9FFE2CF4C
:10105000DAFFE652E652C580DE6ADD6AC550010B52
:101060000DE0DFCF14F0DF2A010EDBCF15F001E336
:10107000DB2AFF0E145CEF0E1558F0E3C59A9E961E
:10108000FC0EDBCFE6FFFD0EDB50E552E710C96E2C
:10109000DE6ADD6A9E50080B0DE1DFCF14F0DF2A17
:1010A000010EDBCF15F001E3DB2AFF0E145CEF0E1F
:1010B0001558F0E39E96E552E552E552E5CFDAFF8A
:1010C000E7CFD9FF1200D9CFE6FFDACFE6FFE1CFB5
:1010D000D9FFE2CFDAFFE652E652DE6ADD6AFD0EA4
:1010E000DB50C96E9E50080B0DE1DFCF14F0DF2AF4
:1010F000010EDBCF15F001E3DB2AFF0E145CEF0ECF
:101100001558F0E39E96E552E552E552E5CFDAFF39
:10111000E7CFD9FF1200D9CFE6FFDACFE6FFE1CF64
:10112000D9FFE2CFDAFFE652E652E652DE6ADD6A26
:10113000C586C750010B0DE1DFCF14F0DF2A010E89
:10114000DBCF15F001E3DB2AFF0E145CEF0E155820
:10115000F0E3020EC9CFDBFFFD0EDB5013E0C588C4
:10116000DE6ADD6AC550100B0DE0DFCF14F0DF2A18
:10117000010EDBCF15F001E3DB2AFF0E145CEF0E4E
:101180001558F0E3020EDB50E552E552E552E55208
:10119000E5CFDAFFE7CFD9FF1200D9CFE6FFDACFEC
:1011A000E6FFE1CFD9FFE2CFDAFFE652E652DE6A90
:1011B000DD6AC58AC584C550040B0DE0DFCF14F08D
:1011C000DF2A010EDBCF15F001E3DB2AFF0E145CF2
:1011D000EF0E1558F0E3E552E552E552E5CFDAFFA0
:1011E000E7CFD9FF1200D9CFE6FFDACFE6FFE1CF94
:1011F000D9FFE2CFDAFFE66AFD0EDBCFE6FF21DFA3
:10120000E552E552FC0EDBCFE6FF5DDFE552C5DFC0
:10121000E552E5CFDAFFE7CFD9FF1200D9CFE6FFDD
:10122000DACFE6FFE1CFD9FFE2CFDAFFE66AFD0EC3
:10123000DBCFE6FF06DFE552E552FC0EDBCFE6FF33
:1012400042DFE552FB0EDBCFE6FF3DDFE552A5DFD7
:10125000E552E5CFDAFFE7CFD9FF1200D9CFE6FF9D
:10126000DACFE6FFE1CFD9FFE2CFDAFFE652010E97
:10127000E66EFD0EDBCFE6FFE4DEE552E552E66A00
:101280004ADFE552DF6EDF50146E156AF36E15C04B
:10129000F4FFE552E552E5CFDAFFE7CFD9FF1200C0
:1012A000D9CFE6FFDACFE6FFE1CFD9FFE2CFDAFF11
:1012B000E652E652010EE66EFD0EDBCFE6FFC1DE22
:1012C000E552E552010EE66E26DFE552DF6EE66A74
:1012D00022DFE552E76E010EE7CFDBFF5EDFDFCFF7
:1012E00016F016C017F0166A010EDB50000116103A
:1012F000146E17C015F0F36E17C0F4FFE552E552F7
:10130000E552E5CFDAFFE7CFD9FF1200D9CFE6FFEC
:10131000DACFE6FFE1CFD9FFE2CFDAFFE6529380E2
:101320009382C78E770EC86E280EC66EC56AC950E6
:10133000DF6EE552E552E5CFDAFFE7CFD9FF1200C5
:10134000D9CFE6FFDACFE6FFE1CFD9FFE2CFDAFF70
:10135000E652E652E652E652D950FC0FE96EFF0E15
:10136000DA20EA6EEE50ED1045E05F0EF36E020EED
:10137000F3CFDBFF020EDB520CE0DB06020EDB528A
:1013800008E0000000000000000000000000DB0694
:10139000F5D7010EDE6EDD6ADECF14F0DDCF15F07D
:1013A000FC0EDBCF16F0FD0EDBCF17F01550171833
:1013B000E8AE02D0173404D01650145C17501558FC
:1013C00019E2620EF36E030EF3CFDBFF030EDB5266
:1013D0000CE0DB06030EDB5208E00000000000001A
:1013E000000000000000DB06F5D7DF2A010E01E354
:1013F000DB2AD2D7040EE15C02E2E16AE552E16E3B
:10140000E552E5CFDAFFE7CFD9FF1200D9CFE6FFEB
:10141000DACFE6FFE1CFD9FFE2CFDAFFE652E652BC
:10142000E652E652D950FC0FE96EFF0EDA20EA6E62
:10143000EE50ED1051E05E0EF36E020EF3CFDBFFC7
:10144000020EDB520CE0DB06020EDB5208E000006D
:1014500000000000000000000000DB06F5D7090EC8
:10146000E66EE66A6DDFE552E552010EDE6EDD6A7C
:10147000DECF14F0DDCF15F0FC0EDBCF16F0FD0E45
:10148000DBCF17F015501718E8AE02D0173404D090
:101490001650145C175015581FE2600EF36E030EC1
:1014A000F3CFDBFF030EDB520CE0DB06030EDB5257
:1014B00008E0000000000000000000000000DB0663
:1014C000F5D7090EE66EE66A3BDFE552E552DF2A04
:1014D000010E01E3DB2ACCD7040EE15C02E2E16AF3
:1014E000E552E16EE552E5CFDAFFE7CFD9FF120012
:1014F000D9CFE6FFDACFE6FFE1CFD9FFE2CFDAFFBF
:10150000E652E652DE6ADD6ADECF14F0DDCF15F07A
:10151000FC0EDBCF16F0FD0EDBCF17F015501718C1
:10152000E8AE02D0173404D01650145C175015588A
:101530000CE2E80EE66E030EE66E68DFE552E55259
:10154000DF2A010EE1E3DB2ADFD7E552E552E5525F
:0A155000E5CFDAFFE7CFD9FF120064
:06155A0094949298949213
:101560009396E668CEEC0DF0E552E6681AEC0DF0C5
:10157000E552050EE66EB3EC0DF0E552000EE66E98
:10158000E66A09D8E552E552000EE66EE66A59D8D9
:10159000E552E5521200D9CFE6FFDACFE6FFE1CF00
:1015A000D9FFE2CFDAFFE652FC0EDBCF14F0FD0EDE
:1015B000DBCF15F0153404E214500008000E15546A
:1015C00002E3000E01D0010EDF6E00016A51DF5C04
:1015D00010E0000EE66EE66A84EC0DF0E552E5528E
:1015E000140EE66EE66A06EC0AF0E552E552DFCF2D
:1015F0006AF0DF040CE1FC0EDBCFE6FFFD0EDBCF73
:10160000E6FF84EC0DF0E552E552809813D0FC0E15
:10161000DBCF14F0FD0EDBCF15F0FF0E1426030E0A
:10162000152214C0E6FF15C0E6FF84EC0DF0E5526C
:10163000E5528088E552E552E5CFDAFFE7CFD9FFE2
:101640001200D9CFE6FFDACFE6FFE1CFD9FFE2CF34
:10165000DAFFE652FC0EDBCF14F0FD0EDBCF15F007
:10166000153404E214500008000E155402E3000E75
:1016700001D0010EDF6E00016B51DF5C10E0000E47
:10168000E66EE66A55EC0DF0E552E552140EE66E94
:10169000E66A06EC0AF0E552E552DFCF6BF0DF04B4
:1016A0000CE1FC0EDBCFE6FFFD0EDBCFE6FF55ECD9
:1016B0000DF0E552E552819613D0FC0EDBCF14F00D
:1016C000FD0EDBCF15F0FF0E1426030E152214C0FD
:1016D000E6FF15C0E6FF55EC0DF0E552E5528186B8
:1016E000E552E552E5CFDAFFE7CFD9FF1200000E51
:1016F000E66EE66A84EC0DF0E552E5528098000E45
:10170000E66EE66A55EC0DF0E552E5528196120060
:1017100099EC04F0D5EC04F093849388938A938039
:101720009382F19E956A836A1200D9CFE6FFDACFE1
:10173000E6FFE1CFD9FFE2CFDAFFFD0EDB50070A6B
:101740001CE0010A18E0030A14E0010A10E0070A8D
:101750000CE0010A08E0030A04E0010A0FE18380BB
:101760000DD083820BD0838409D0838607D08388F1
:1017700005D0838A03D0838C01D0838EE552E5CFD8
:10178000DAFFE7CFD9FF1200D9CFE6FFDACFE6FFC5
:10179000E1CFD9FFE2CFDAFFFD0EDB50070A1CE0F4
:1017A000010A18E0030A14E0010A10E0070A0CE03D
:1017B000010A08E0030A04E0010A0FE183900DD05A
:1017C00083920BD0839409D0839607D0839805D059
:1017D000839A03D0839C01D0839EE552E5CFDAFF44
:1017E000E7CFD9FF1200D9CFE6FFDACFE6FFE1CF8E
:1017F000D9FFE2CFDAFFF60EDB50E8B08380E8A035
:101800008390F70EDB50E8B08382E8A08392F80E55
:10181000DB50E8B08384E8A08394F90EDB50E8B095
:101820008386E8A08396FA0EDB50E8B08388E8A0B0
:101830008398FB0EDB50E8B0838AE8A0839AFC0E05
:10184000DB50E8B0838CE8A0839CFD0EDB50E8B051
:10185000838EE8A0839EE552E5CFDAFFE7CFD9FF7C
:02186000120074
:0E186200D9CFE6FFDACFE6FFFA0EE3CFD9FFCB
:10187000FB0EE3CFDAFFFD0EE35209E72D0EDE6E1D
:10188000FC0EE31EE32AFD0ED8B4E306E31EE65287
:10189000E652E652FD0EE124E76EFF0EE220E46E12
:1018A000E652F70EE3CFE6FFF70EE3CFE6FFA1EC3B
:1018B0000CF0F90EE124E96EFF0EE220EA6E91ECE5
:1018C0000CF00AE18EEC0CF009E191EC0CF008E16F
:1018D0008EEC0CF007E108D09CEC0CF097EC0CF0CF
:1018E0009CEC0CF097EC0CF09CEC0CF0DE6AF90E22
:1018F000E126FF0EE222FF0EE3CFDAFFE552FF0EF4
:10190000E3CFD9FFE552FC0EE124E96EFF0EE220A1
:10191000EA6EEECFF3FFEFCFF4FF1200EF380F0BBC
:101920001200EF500F0B02E1EE52D8841200EF3894
:101930000F0B300FDE6E1200EE500F0B300FDE6E0D
:101940001200FC0EE3CFE9FFFD0EE3CFEAFF100E1D
:10195000E66EEE6AEE6AEF6AD890FD0EE336FE0E92
:10196000E336ED36ED36EF36FF0EE30609E0C2EC66
:101970000CF0EE52C2EC0CF0EE52C2EC0CF0EDD7D3
:10198000E56E1200030EEF24E8B6EF6E300EEF2482
:06199000E8BEEF6E000C42
:0A199600060EF66E000EF76E000E4E
:1019A000F86E00010900F550656F0900F550666F8B
:1019B00003E1656701D03DD00900F550606F090073
:1019C000F550616F0900F550626F09000900F5508C
:1019D000E96E0900F550EA6E090009000900F550AA
:1019E000636F0900F550646F09000900F6CF67F0D6
:1019F000F7CF68F0F8CF69F060C0F6FF61C0F7FF7D
:101A000062C0F8FF0001635302E1645307E009007C
:101A1000F550EE6E6307F8E26407F9D767C0F6FF8A
:101A200068C0F7FF69C0F8FF00016507000E665B3C
:041A3000BFD712000A
:0C1A3400D9CFE6FFDACFE6FFE1CFD9FF03
:101A4000E2CFDAFFE652E652E652E652F8CF02F073
:101A5000F6CF03F00C0EBA6E050EF66EF76A300E76
:101A6000F86E0800F550010B03E0010EDB6802D0B0
:101A7000010EDB6A010EDB5002E0949201D09396D6
:101A8000CA94FD0EDB50CB6ECA8402C0F8FF03C0BF
:101A9000F6FF040EE15C02E2E16AE552E16EE55216
:0A1AA000E5CFDAFFE7CFD9FF12000F
:061AAA00D9CFE6FFDACF00
:101AB000E6FFE1CFD9FFE2CFDAFFE652E652FC0EB5
:101AC000DBCF14F0FD0EDBCF15F0060ED8901436E8
:101AD0001536E804FBE114C0DEFF15C0DDFF010E82
:101AE000DB50BB6EDF50E840E8403F0B300B146E1C
:101AF000CF0EBA141410BA6EE552E552E552E5CF96
:081B0000DAFFE7CFD9FF120064
:081B0800D9CFE6FFDACFE6FFBA
:101B1000E1CFD9FFE2CFDAFFE652E652FC0EDBCF8F
:101B200014F0FD0EDBCF15F0060ED89014361536E6
:101B3000E804FBE114C0DEFF15C0DDFF010EDB5041
:101B4000BE6EDF50E840E8403F0B300B146ECF0E06
:101B5000BD141410BD6EE552E552E552E5CFDAFF33
:061B6000E7CFD9FF1200DF
:0A1B6600D9CFE6FFDACFE6FFE1CFAA
:101B7000D9FFE2CFDAFFFD0EDB50FB0BCA6ECC6A59
:101B80009E92FD0EDBAE02D09D8201D09D92CA8452
:0C1B9000E552E5CFDAFFE7CFD9FF1200E5
:041B9C00D9CFE6FFB8
:101BA000DACFE6FFE1CFD9FFE2CFDAFF0C0EBD12AC
:101BB0009494CA94FD0EDB50CB6ECA84E552E5CFF7
:0C1BC000DAFFE7CFD9FF12009494120066
:041BCC00056A046A38
:101BD000100EE76ED89008360936043605360D50DB
:101BE000045C0E50055805E30D50045E0E50055A76
:081BF000082AE72EF0D71200CD
:081BF800000EF36E00EE00F098
:101C0000080E01D81200EA6002D0EE6AFCD7F35049
:081C1000E9601200EE6AFCD746
:081C180013EE00F023EE00F0D2
:101C2000F86A019CCBEC0CF034EC0EF024EC0EF0D6
:041C3000FBD71200CC
:0C1C340088EC0BF099EC04F09CEC06F03E
:101C4000ADEC0AF028EF0EF0F5DF29EC0EF0FDD731
:101C50001200640EE66E47EC00F0E552640EE66E8C
:081C6000E1EC00F0E552120076
:021C6800120068
:021C6A00000078
:020000040030CA
:0100000024DB
:010001000EF0
:0100020039C4
:010003001EDE
:010005008179
:010006008178
:010008000FE8
:01000900C036
:01000A000FE6
:01000B00E014
:01000C000FE4
:01000D0040B2
:00000001FF
